{
  "contractName": "Airport",
  "abi": [
    {
      "constant": true,
      "inputs": [
        {
          "name": "",
          "type": "uint256"
        }
      ],
      "name": "country_level",
      "outputs": [
        {
          "name": "",
          "type": "uint256"
        }
      ],
      "payable": false,
      "stateMutability": "view",
      "type": "function"
    },
    {
      "constant": true,
      "inputs": [
        {
          "name": "",
          "type": "uint256"
        }
      ],
      "name": "user_level",
      "outputs": [
        {
          "name": "",
          "type": "uint256"
        }
      ],
      "payable": false,
      "stateMutability": "view",
      "type": "function"
    },
    {
      "constant": true,
      "inputs": [
        {
          "name": "",
          "type": "uint256"
        }
      ],
      "name": "country",
      "outputs": [
        {
          "name": "",
          "type": "address"
        }
      ],
      "payable": false,
      "stateMutability": "view",
      "type": "function"
    },
    {
      "inputs": [],
      "payable": false,
      "stateMutability": "nonpayable",
      "type": "constructor"
    },
    {
      "constant": false,
      "inputs": [
        {
          "name": "country_idx",
          "type": "uint256"
        },
        {
          "name": "_country_level",
          "type": "uint256"
        }
      ],
      "name": "setCountryLevel",
      "outputs": [
        {
          "name": "success",
          "type": "bool"
        }
      ],
      "payable": false,
      "stateMutability": "nonpayable",
      "type": "function"
    },
    {
      "constant": false,
      "inputs": [
        {
          "name": "user_idx",
          "type": "uint256"
        },
        {
          "name": "_user_level",
          "type": "uint256"
        }
      ],
      "name": "setUserLevel",
      "outputs": [
        {
          "name": "success",
          "type": "bool"
        }
      ],
      "payable": false,
      "stateMutability": "nonpayable",
      "type": "function"
    },
    {
      "constant": false,
      "inputs": [
        {
          "name": "country_idx",
          "type": "uint256"
        },
        {
          "name": "user_idx",
          "type": "uint256"
        }
      ],
      "name": "chkBook",
      "outputs": [
        {
          "name": "result",
          "type": "bool"
        }
      ],
      "payable": false,
      "stateMutability": "nonpayable",
      "type": "function"
    },
    {
      "constant": true,
      "inputs": [],
      "name": "getCountry",
      "outputs": [
        {
          "name": "",
          "type": "address[16]"
        }
      ],
      "payable": false,
      "stateMutability": "view",
      "type": "function"
    }
  ],
  "bytecode": "0x608060405234801561001057600080fd5b5061050a806100206000396000f300608060405260043610610083576000357c0100000000000000000000000000000000000000000000000000000000900463ffffffff1680632bcaad0f1461008857806352c895de146100c95780635f4028541461010a5780636601e65b146101595780639717972b146101a85780639e0c3ead146101f7578063f731118f1461024a575b600080fd5b34801561009457600080fd5b506100b3600480360381019080803590602001909291905050506102b7565b6040518082815260200191505060405180910390f35b3480156100d557600080fd5b506100f4600480360381019080803590602001909291905050506102cf565b6040518082815260200191505060405180910390f35b34801561011657600080fd5b5061013f60048036038101908080359060200190929190803590602001909291905050506102e7565b604051808215151515815260200191505060405180910390f35b34801561016557600080fd5b5061018e6004803603810190808035906020019092919080359060200190929190505050610327565b604051808215151515815260200191505060405180910390f35b3480156101b457600080fd5b506101dd6004803603810190808035906020019092919080359060200190929190505050610367565b604051808215151515815260200191505060405180910390f35b34801561020357600080fd5b5061020c610404565b6040518082601060200280838360005b8381101561023757808201518184015260208101905061021c565b5050505090500191505060405180910390f35b34801561025657600080fd5b5061027560048036038101908080359060200190929190505050610485565b604051808273ffffffffffffffffffffffffffffffffffffffff1673ffffffffffffffffffffffffffffffffffffffff16815260200191505060405180910390f35b60106020528060005260406000206000915090505481565b60116020528060005260406000206000915090505481565b60008083101580156102fa5750600f8311155b151561030557600080fd5b8160106000858152602001908152602001600020819055506001905092915050565b600080831015801561033a5750600f8311155b151561034557600080fd5b8160116000858152602001908152602001600020819055506001905092915050565b600080831015801561037a5750600f8311155b151561038557600080fd5b8160106000858152602001908152602001600020541115156103f957336000846010811015156103b157fe5b0160006101000a81548173ffffffffffffffffffffffffffffffffffffffff021916908373ffffffffffffffffffffffffffffffffffffffff160217905550600190506103fe565b600090505b92915050565b61040c6104ba565b600060108060200260405190810160405280929190826010801561047b576020028201915b8160009054906101000a900473ffffffffffffffffffffffffffffffffffffffff1673ffffffffffffffffffffffffffffffffffffffff1681526020019060010190808311610431575b5050505050905090565b60008160108110151561049457fe5b016000915054906101000a900473ffffffffffffffffffffffffffffffffffffffff1681565b610200604051908101604052806010906020820280388339808201915050905050905600a165627a7a72305820bccbc4583d83dc204fbe0533603006139898a2d41662a86e287d5a0ac973edd60029",
  "source": "pragma solidity ^0.4.17;\n\ncontract Airport {\n    address[16] public country;\n\n    mapping (uint256 => uint256) public country_level;\n    mapping (uint256 => uint256) public user_level;\n\n\n    function Airport() public {}\n\n    function setCountryLevel(uint256 country_idx, uint256 _country_level) public returns (bool success)  {\n        require(country_idx >= 0 && country_idx <= 15);\n        country_level[country_idx] = _country_level;\n        return true;\n    }\n\n    function setUserLevel(uint256 user_idx, uint256 _user_level) public returns (bool success)  {\n        require(user_idx >= 0 && user_idx <= 15);\n        user_level[user_idx] = _user_level;\n        return true;\n    }\n\n\n    function chkBook(uint256 country_idx, uint256 user_idx) public returns (bool result) {\n        require(country_idx >= 0 && country_idx <= 15);\n        if( country_level[country_idx] <= user_idx ){\n            country[country_idx] = msg.sender;\n            return true;\n        }\n        else{\n            return false;\n        }        \n    }\n\n    function getCountry() public view returns (address[16]) {\n        return country;\n    }\n\n\n}\n\n",
  "sourcePath": "/Users/gy8971/Desktop/BC/Airport/contracts/Airport.sol",
  "compiler": {
    "name": "solc",
    "version": "0.4.23+commit.124ca40d.Emscripten.clang"
  },
  "schemaVersion": "2.0.0",
  "updatedAt": "2018-06-07T05:33:09.936Z"
}