{
  "contractName": "Airport",
  "abi": [
    {
      "constant": true,
      "inputs": [
        {
          "name": "",
          "type": "uint256"
        }
      ],
      "name": "country_level",
      "outputs": [
        {
          "name": "",
          "type": "uint256"
        }
      ],
      "payable": false,
      "stateMutability": "view",
      "type": "function"
    },
    {
      "constant": true,
      "inputs": [
        {
          "name": "",
          "type": "uint256"
        }
      ],
      "name": "user_level",
      "outputs": [
        {
          "name": "",
          "type": "uint256"
        }
      ],
      "payable": false,
      "stateMutability": "view",
      "type": "function"
    },
    {
      "constant": true,
      "inputs": [
        {
          "name": "",
          "type": "uint256"
        }
      ],
      "name": "country",
      "outputs": [
        {
          "name": "",
          "type": "address"
        }
      ],
      "payable": false,
      "stateMutability": "view",
      "type": "function"
    },
    {
      "inputs": [],
      "payable": false,
      "stateMutability": "nonpayable",
      "type": "constructor"
    },
    {
      "constant": false,
      "inputs": [
        {
          "name": "countries",
          "type": "uint256[16]"
        }
      ],
      "name": "setCountryLevel",
      "outputs": [
        {
          "name": "success",
          "type": "bool"
        }
      ],
      "payable": false,
      "stateMutability": "nonpayable",
      "type": "function"
    },
    {
      "constant": false,
      "inputs": [
        {
          "name": "user_idx",
          "type": "uint256"
        },
        {
          "name": "_user_level",
          "type": "uint256"
        }
      ],
      "name": "setUserLevel",
      "outputs": [
        {
          "name": "success",
          "type": "bool"
        }
      ],
      "payable": false,
      "stateMutability": "nonpayable",
      "type": "function"
    },
    {
      "constant": false,
      "inputs": [
        {
          "name": "country_idx",
          "type": "uint256"
        },
        {
          "name": "user_idx",
          "type": "uint256"
        }
      ],
      "name": "chkBook",
      "outputs": [
        {
          "name": "result",
          "type": "bool"
        }
      ],
      "payable": false,
      "stateMutability": "nonpayable",
      "type": "function"
    },
    {
      "constant": true,
      "inputs": [
        {
          "name": "country_idx",
          "type": "uint256"
        }
      ],
      "name": "getCountryLevel",
      "outputs": [
        {
          "name": "",
          "type": "uint256"
        }
      ],
      "payable": false,
      "stateMutability": "view",
      "type": "function"
    }
  ],
  "bytecode": "0x608060405234801561001057600080fd5b506104b6806100206000396000f300608060405260043610610083576000357c0100000000000000000000000000000000000000000000000000000000900463ffffffff1680632bcaad0f146100885780634ff283f3146100c957806352c895de146101345780636601e65b146101755780639717972b146101c4578063b3ad5b5314610213578063f731118f14610254575b600080fd5b34801561009457600080fd5b506100b3600480360381019080803590602001909291905050506102c1565b6040518082815260200191505060405180910390f35b3480156100d557600080fd5b5061011a6004803603810190808061020001906010806020026040519081016040528092919082601060200280828437820191505050505091929192905050506102d9565b604051808215151515815260200191505060405180910390f35b34801561014057600080fd5b5061015f6004803603810190808035906020019092919050505061032b565b6040518082815260200191505060405180910390f35b34801561018157600080fd5b506101aa6004803603810190808035906020019092919080359060200190929190505050610343565b604051808215151515815260200191505060405180910390f35b3480156101d057600080fd5b506101f96004803603810190808035906020019092919080359060200190929190505050610383565b604051808215151515815260200191505060405180910390f35b34801561021f57600080fd5b5061023e60048036038101908080359060200190929190505050610433565b6040518082815260200191505060405180910390f35b34801561026057600080fd5b5061027f60048036038101908080359060200190929190505050610455565b604051808273ffffffffffffffffffffffffffffffffffffffff1673ffffffffffffffffffffffffffffffffffffffff16815260200191505060405180910390f35b60106020528060005260406000206000915090505481565b600080600090505b60108110156103215782816010811015156102f857fe5b6020020151601060008381526020019081526020016000208190555080806001019150506102e1565b6001915050919050565b60116020528060005260406000206000915090505481565b60008083101580156103565750600f8311155b151561036157600080fd5b8160116000858152602001908152602001600020819055506001905092915050565b60008083101580156103965750600f8311155b15156103a157600080fd5b6011600083815260200190815260200160002054601060008581526020019081526020016000205411151561042857336000846010811015156103e057fe5b0160006101000a81548173ffffffffffffffffffffffffffffffffffffffff021916908373ffffffffffffffffffffffffffffffffffffffff1602179055506001905061042d565b600090505b92915050565b6000806010600084815260200190815260200160002054905080915050919050565b60008160108110151561046457fe5b016000915054906101000a900473ffffffffffffffffffffffffffffffffffffffff16815600a165627a7a72305820e99e3178bd0f4408633566ab1eb4e27be891e6c4bb1ef0b631d6f4663d7dcb590029",
  "source": "pragma solidity ^0.4.17;\n\ncontract Airport {\n    address[16] public country;\n\n    mapping (uint => uint) public country_level;\n    mapping (uint => uint) public user_level;\n\n\n    function Airport() public {}\n\n    function setCountryLevel(uint[16] countries) public returns (bool success)  {\n        for(uint i = 0 ; i < 16; i++){\n            country_level[i] = countries[i];\n        }\n        return true;\n    }\n\n    function setUserLevel(uint user_idx, uint _user_level) public returns (bool success)  {\n        require(user_idx >= 0 && user_idx <= 15);\n        user_level[user_idx] = _user_level;\n        return true;\n    }\n\n\n    function chkBook(uint country_idx, uint user_idx) public returns (bool result) {\n        require(country_idx >= 0 && country_idx <= 15);\n        if( country_level[country_idx] <= user_level[user_idx] ){\n            country[country_idx] = msg.sender;\n            return true;\n        }\n        else{\n            return false;\n        }        \n    }\n\n    function getCountryLevel(uint country_idx) view public returns (uint) {\n        uint tmp = country_level[country_idx];\n        return tmp;\n    }\n\n\n}\n\n",
  "sourcePath": "/Users/gy8971/Desktop/BC/Airport/contracts/Airport.sol",
  "compiler": {
    "name": "solc",
    "version": "0.4.23+commit.124ca40d.Emscripten.clang"
  },
  "schemaVersion": "2.0.0",
  "updatedAt": "2018-06-07T14:35:46.774Z"
}