{
  "contractName": "Airport",
  "abi": [
    {
      "constant": true,
      "inputs": [
        {
          "name": "",
          "type": "uint256"
        }
      ],
      "name": "userLevelList",
      "outputs": [
        {
          "name": "",
          "type": "uint256"
        }
      ],
      "payable": false,
      "stateMutability": "view",
      "type": "function"
    },
    {
      "constant": true,
      "inputs": [
        {
          "name": "",
          "type": "uint256"
        }
      ],
      "name": "country_level",
      "outputs": [
        {
          "name": "",
          "type": "uint256"
        }
      ],
      "payable": false,
      "stateMutability": "view",
      "type": "function"
    },
    {
      "constant": true,
      "inputs": [
        {
          "name": "",
          "type": "uint256"
        }
      ],
      "name": "user_level",
      "outputs": [
        {
          "name": "",
          "type": "uint256"
        }
      ],
      "payable": false,
      "stateMutability": "view",
      "type": "function"
    },
    {
      "constant": true,
      "inputs": [
        {
          "name": "",
          "type": "uint256"
        }
      ],
      "name": "country",
      "outputs": [
        {
          "name": "",
          "type": "address"
        }
      ],
      "payable": false,
      "stateMutability": "view",
      "type": "function"
    },
    {
      "inputs": [],
      "payable": false,
      "stateMutability": "nonpayable",
      "type": "constructor"
    },
    {
      "constant": false,
      "inputs": [
        {
          "name": "countries",
          "type": "uint256[16]"
        }
      ],
      "name": "setCountryLevel",
      "outputs": [
        {
          "name": "success",
          "type": "bool"
        }
      ],
      "payable": false,
      "stateMutability": "nonpayable",
      "type": "function"
    },
    {
      "constant": false,
      "inputs": [
        {
          "name": "user_idx",
          "type": "uint256"
        },
        {
          "name": "_user_level",
          "type": "uint256"
        }
      ],
      "name": "setUserLevel",
      "outputs": [
        {
          "name": "",
          "type": "uint256"
        }
      ],
      "payable": false,
      "stateMutability": "nonpayable",
      "type": "function"
    },
    {
      "constant": true,
      "inputs": [
        {
          "name": "user_idx",
          "type": "uint256"
        }
      ],
      "name": "getUserLevel",
      "outputs": [
        {
          "name": "",
          "type": "uint256"
        }
      ],
      "payable": false,
      "stateMutability": "view",
      "type": "function"
    },
    {
      "constant": false,
      "inputs": [
        {
          "name": "country_idx",
          "type": "uint256"
        },
        {
          "name": "user_idx",
          "type": "uint256"
        }
      ],
      "name": "chkBook",
      "outputs": [
        {
          "name": "result",
          "type": "bool"
        }
      ],
      "payable": false,
      "stateMutability": "nonpayable",
      "type": "function"
    },
    {
      "constant": true,
      "inputs": [
        {
          "name": "country_idx",
          "type": "uint256"
        }
      ],
      "name": "getCountryLevel",
      "outputs": [
        {
          "name": "",
          "type": "uint256"
        }
      ],
      "payable": false,
      "stateMutability": "view",
      "type": "function"
    }
  ],
  "bytecode": "0x608060405234801561001057600080fd5b50610589806100206000396000f300608060405260043610610099576000357c0100000000000000000000000000000000000000000000000000000000900463ffffffff1680631967c5a11461009e5780632bcaad0f146100df57806338f8fe83146101205780634ff283f31461016157806352c895de146101cc5780636601e65b1461020d5780639717972b14610258578063b3ad5b53146102a7578063f731118f146102e8575b600080fd5b3480156100aa57600080fd5b506100c960048036038101908080359060200190929190505050610355565b6040518082815260200191505060405180910390f35b3480156100eb57600080fd5b5061010a6004803603810190808035906020019092919050505061036f565b6040518082815260200191505060405180910390f35b34801561012c57600080fd5b5061014b60048036038101908080359060200190929190505050610386565b6040518082815260200191505060405180910390f35b34801561016d57600080fd5b506101b26004803603810190808061020001906010806020026040519081016040528092919082601060200280828437820191505050505091929192905050506103a0565b604051808215151515815260200191505060405180910390f35b3480156101d857600080fd5b506101f7600480360381019080803590602001909291905050506103f2565b6040518082815260200191505060405180910390f35b34801561021957600080fd5b50610242600480360381019080803590602001909291908035906020019092919050505061040a565b6040518082815260200191505060405180910390f35b34801561026457600080fd5b5061028d6004803603810190808035906020019092919080359060200190929190505050610456565b604051808215151515815260200191505060405180910390f35b3480156102b357600080fd5b506102d260048036038101908080359060200190929190505050610506565b6040518082815260200191505060405180910390f35b3480156102f457600080fd5b5061031360048036038101908080359060200190929190505050610528565b604051808273ffffffffffffffffffffffffffffffffffffffff1673ffffffffffffffffffffffffffffffffffffffff16815260200191505060405180910390f35b60108160108110151561036457fe5b016000915090505481565b602080528060005260406000206000915090505481565b600060108260108110151561039757fe5b01549050919050565b600080600090505b60108110156103e85782816010811015156103bf57fe5b6020020151602060008381526020019081526020016000208190555080806001019150506103a8565b6001915050919050565b60216020528060005260406000206000915090505481565b600080831015801561041d5750600f8311155b151561042857600080fd5b8160108460108110151561043857fe5b018190555060108360108110151561044c57fe5b0154905092915050565b60008083101580156104695750600f8311155b151561047457600080fd5b602160008381526020019081526020016000205460206000858152602001908152602001600020541115156104fb57336000846010811015156104b357fe5b0160006101000a81548173ffffffffffffffffffffffffffffffffffffffff021916908373ffffffffffffffffffffffffffffffffffffffff16021790555060019050610500565b600090505b92915050565b6000806020600084815260200190815260200160002054905080915050919050565b60008160108110151561053757fe5b016000915054906101000a900473ffffffffffffffffffffffffffffffffffffffff16815600a165627a7a7230582090b3f2e34a4ecac6133fc0eace21899d4c40569bac04aad277753a21cf6a7b980029",
  "source": "pragma solidity ^0.4.17;\n\ncontract Airport {\n    address[16] public country;\n    uint[16] public userLevelList;\n\n    mapping (uint => uint) public country_level;\n    mapping (uint => uint) public user_level;\n\n\n    function Airport() public {}\n\n    function setCountryLevel(uint[16] countries) public returns (bool success)  {\n        for(uint i = 0 ; i < 16; i++){\n            country_level[i] = countries[i];\n        }\n        return true;\n    }\n\n    function setUserLevel(uint user_idx, uint _user_level) public returns (uint)  {\n        require(user_idx >= 0 && user_idx <= 15);\n        userLevelList[user_idx] = _user_level;\n        return userLevelList[user_idx];\n    }\n\n    function getUserLevel(uint user_idx) view public returns (uint)  {\n        return userLevelList[user_idx];\n    }\n\n\n    function chkBook(uint country_idx, uint user_idx) public returns (bool result) {\n        require(country_idx >= 0 && country_idx <= 15);\n        if( country_level[country_idx] <= user_level[user_idx] ){\n            country[country_idx] = msg.sender;\n            return true;\n        }\n        else{\n            return false;\n        }        \n    }\n\n    function getCountryLevel(uint country_idx) view public returns (uint) {\n        uint tmp = country_level[country_idx];\n        return tmp;\n    }\n\n\n}\n\n",
  "sourcePath": "/Users/gy8971/Desktop/BC/Airport/contracts/Airport.sol",
  "compiler": {
    "name": "solc",
    "version": "0.4.23+commit.124ca40d.Emscripten.clang"
  },
  "schemaVersion": "2.0.0",
  "updatedAt": "2018-06-21T02:04:52.767Z"
}